:100000000C943A000C9457000C9457000C94570031
:100010000C9457000C9457000C9457000C944B030D
:100020000C9457000C9457000C9457000C945700F4
:100030000C9457000C9457000C9457000C945700E4
:100040000C9457000C9457000C9457000C945700D4
:100050000C945700F800D800DA00DC00DE00E00065
:10006000E200E400E600E800EA00EC00EE00F00048
:10007000F200F40011241FBECFE5D8E0DEBFCDBFF3
:1000800010E0A0E6B0E0E4E5F6E102C005900D92D4
:10009000AA38B107D9F727E0AAE8B0E001C01D925D
:1000A000A431B207E1F70E94C3060C94280B0C940C
:1000B0000000811102C06BBB0895813011F468BB50
:1000C0000895823011F465BB0895833009F462BB52
:1000D0000895811102C06ABB0895813011F467BB95
:1000E0000895823011F464BB0895833009F461BB34
:1000F0000895811109C089B390E002C09595879554
:100100006A95E2F781700895813049F486B390E0F2
:1001100002C0959587956A95E2F7817008958230BF
:1001200049F483B390E002C0959587956A95E2F70C
:1001300081700895833049F480B390E002C09595B2
:1001400087956A95E2F78170089580E00895CF93CE
:10015000DF93EC010E94A30820918A0030918B006C
:10016000C9018C0F9D1F8C3D45E0940758F428175A
:10017000390758F4E901C457DF4F90938B008093FF
:100180008A0005C0C0E0D0E002C0C0E0D0E00E941C
:100190007709CE01DF91CF910895089590E0FC0199
:1001A0003197E031F10510F5E65DFF4F0C94F80A48
:1001B00088E3089589E3089585E2089584E3089526
:1001C00085E3089586E308958AE2089581E308951A
:1001D00082E3089583E308958DE208958DE0089504
:1001E00080E308958DE308958BE208958FEF0895DD
:1001F00087E30895CF92DF92FF920F931F93CF93DF
:10020000DF9300E010E06894CC24C4F8D12CF02EE9
:10021000E601002E02C0CC0FDD1F0A94E2F76C2F1E
:1002200082E00E9469006C2F609582E00E94590074
:10023000C0E06C2F82E00E947900811108C0CC0FD1
:10024000CC0F81E08F0D8C0F0E94CE0009C0CF5FD4
:10025000C43079F70F5F1F4F04301105C1F68FEFDF
:10026000DF91CF911F910F91FF90DF90CF90089574
:10027000C29889EF90E00197F1F700C00000C29AA0
:100280008BED95E00197F1F700C000000895CF9342
:10029000C82FC098C19888B38F7088BB88B39C2F33
:1002A000907F892B88BB0E94380188B38F7088BBF0
:1002B00088B3C295C07FC82BC8BB0E943801CF91BC
:1002C00008958FEF87BB84E088BB83E30E944701DA
:1002D00082E30E94470188E20E9447018CE00E946D
:1002E00047010895CF93C82FC09AC19888B38F70E3
:1002F00088BB88B39C2F907F892B88BB0E943801D4
:1003000088B38F7088BB88B3C295C07FC82BC8BB29
:100310000E943801CF910895813049F028F0823051
:1003200049F0833051F00CC080E8860F0AC080ECA1
:10033000860F07C080E8860F04C080E8860F01C0E2
:1003400080E80E944701089581E00E9447010895D6
:10035000CF93DF93EC018881882331F021960E94AE
:10036000720189918111FBCFDF91CF910895FC013A
:100370000396928381832FEF3FEF34832383968309
:1003800085839087878310820895FC0111861086EB
:100390000895CF93DF93FC01DB0121813281E901D4
:1003A0008A819B8113969C938E931297818192816F
:1003B00015969C938E9314978A819B81EC017D8383
:1003C0006C83E9017B836A83728361831996FC9352
:1003D000EE93189780818F5F8083DF91CF9108958E
:1003E000CF93DF93EB01488159814F3F2FEF5207A5
:1003F00031F4DC011796ED91FC91189717C0FC01C0
:100400003396DC0115962D913C911697D9012D91CB
:100410003C914217530750F00280F381E02DA281F6
:10042000B3812D913C9142175307B0F7A281B3815C
:10043000BB83AA831596DC93CE931497FD83EC833C
:10044000D383C28399878887FC0120812F5F208313
:10045000DF91CF910895FC01A281B38184819581C0
:1004600015969C938E931497A481B5818281938174
:1004700013969C938E931297A085B18511968D91BA
:100480009C911297E817F90731F4848195811296AF
:100490009C938E931197118610868C9181508C932A
:1004A000089531E1FC013083319722E220833197B6
:1004B000A3E3A083319760833197708331971082D3
:1004C000319760E8608331971082319762E06083F2
:1004D000319763E06083319764E06083319765E032
:1004E0006083319766E06083319767E0608331977E
:1004F00068E06083319769E06083319760E16083F1
:1005000031973083319732E13083319733E1308353
:10051000319734E13083319735E13083319736E1DB
:100520003083319737E13083319738E13083319729
:1005300039E13083319730E23083319731E23083D3
:1005400031972083319723E220833197408331977D
:100550005083319726E22083319727E22083319719
:1005600028E22083319729E22083319720E32083FA
:10057000319721E32083869708951BBC8CE78ABDC1
:100580008BE08EBD89B7806189BFA0910807B091CB
:100590000907CD91CDBFDD91DEBFFF91EF91DF91D6
:1005A000CF91BF91AF919F918F917F916F915F910B
:1005B0004F913F912F911F910F91FF90EF90DF90FE
:1005C000CF90BF90AF909F908F907F906F905F90F3
:1005D0004F903F902F901F900F900FBE0F90089557
:1005E00081E008950F920FB6F8940F921F92112494
:1005F0002F923F924F925F926F927F928F929F9233
:10060000AF92BF92CF92DF92EF92FF920F931F9320
:100610002F933F934F935F936F937F938F939F930A
:10062000AF93BF93CF93DF93EF93FF93A09108070E
:10063000B09109070DB60D920EB60D920E94780A80
:10064000A0910807B0910907CD91CDBFDD91DEBF24
:10065000FF91EF91DF91CF91BF91AF919F918F91DA
:100660007F916F915F914F913F912F911F910F91CA
:10067000FF90EF90DF90CF90BF90AF909F908F90C2
:100680007F906F905F904F903F902F901F900F90B2
:100690000FBE0F9008951F920F920FB60F92112464
:1006A0002F933F934F935F936F937F938F939F937A
:1006B000AF93BF93EF93FF930E94B308FF91EF9125
:1006C000BF91AF919F918F917F916F915F914F916A
:1006D0003F912F910F900FBE0F901F90189585B5E9
:1006E000886085BD85B5806485BD85B58F7E85BDF7
:1006F00085B5806285BD85B58E7F85BD85B58260F7
:1007000085BD85B5846085BD0895853650F42FEF8D
:10071000829FC001112464E670E00E94E40A63BD78
:10072000089513BC089585B58E7F85BD85B58D7FF1
:1007300085BD85B58B7F85BD0895CF93DF9300D0B0
:10074000CDB7DEB70E94A9089A83898362E370E07F
:10075000CE0101960E94FC0983E996E00E94A8015F
:10076000F5CFCF93DF9300D0CDB7DEB70E94A908B5
:100770009A8389830F2EF7E78F2EF6E09F2EF02DB8
:1007800066246394712C62E370E0CE0101960E94AE
:10079000FC0980917706909178060B9708F5809177
:1007A000750690917606892BD9F40E94A401F40174
:1007B000608180E00E948C0182E690E00E94A801A6
:1007C00080917706909178060196909378068093B1
:1007D00077060B97C4F27092760660927506D3CFB7
:1007E0008091750690917606019769F60E94A401A2
:1007F000F401608180E00E948C0182E690E00E941A
:10080000A8018091770690917806019790937806D9
:1008100080937706892B09F0B6CF10927606109256
:1008200075068091730690917406019690937406F4
:1008300080937306039709F0A6CF0E94A401A12C10
:10084000B12CC12CD12C0F2EF0E1EF2EF7E0FF2EB2
:10085000F02D02E020E030E045E550E060E070E09F
:100860008BE394E00E942607809112079091130772
:100870000E942F0888CF9F92AF92BF92CF92DF92B3
:10088000EF92FF920F931F93CF93DF9300D0CDB7DA
:10089000DEB70E94A9089A838983912C10E069E150
:1008A00070E0CE0101960E94FC0980917106909142
:1008B00072060196909372068093710680916F067E
:1008C0009091700601969093700680936F060E9437
:1008D000FA008F3F29F00E94FA00982E11E0DFCF36
:1008E0001130F9F40E94A40190929206A12CB12C2F
:1008F000C12CD12C0F2EFAE0EF2EF7E0FF2EF02DB9
:1009000003E020E030E045E550E060E070E08AEE92
:1009100094E00E94260780911007909111070E9491
:100920002F0880916F0690917006803991404CF5A8
:1009300080917106909172068A30910511F044976A
:1009400091F40E94A40160E080E00E948C018AE69C
:1009500090E00E94A80161E081E00E948C018BE799
:1009600090E00E94A80180917106909172064E97C6
:1009700009F095CF0E94A4011092720610927106A0
:100980008ECFA12CB12CC12CD12C0F2EFEE0EF2E3E
:10099000F7E0FF2EF02D03E020E030E045E550E0E9
:1009A00060E070E08BE296E00E94260780911007DD
:1009B000909111070E942F080F900F90DF91CF9117
:1009C0001F910F91FF90EF90DF90CF90BF90AF906D
:1009D0009F900895CF93DF93CDB7DEB7AA970FB658
:1009E000F894DEBF0FBECDBF0E94A9089A83898309
:1009F0000E94A40184E1FE013396DF01982F1D922D
:100A00009A95E9F77496DF011D928A95E9F710E04F
:100A1000912C412C312C812C712C612C5524539418
:100A20006894222421F865E070E0CE0101960E94CE
:100A3000FC098091920690ED980F9A3048F491103D
:100A400007C010926E068B831F5F113071F4F5C0E2
:100A5000113009F4F2C080916E06813009F445C06E
:100A600028F0823009F482C0DECF952C0E94FA0073
:100A70008F3F29F00E94FA00882E922CD4CF80ED6F
:100A8000880D8A30B0F4B2E09B122CC03394E3E0BE
:100A9000F0E0EC0FFD1FE30DF11D8082632D80E07F
:100AA0000E948C01882D0E94720110926E06952C76
:100AB000BACF86ED880D823020F0882D8D7F8D3263
:100AC00089F482E098120EC050926E0680917D06E5
:100AD000E82FF0E0E258F94F80828F5F80937D0627
:100AE000952CA1CF10926E069ECF0E94FA008F3FE8
:100AF00029F00E94FA00882E922C95CF80ED880D67
:100B00008A30D0F492E099128ECF411002C00E9438
:100B1000A401E7E1F0E0EC0FFD1FE40DF11D808280
:100B2000642D80E00E948C01882D0E9472015092F9
:100B30006E064394952C77CF86ED880D823028F091
:100B4000882D8D7F8D3209F06ECFA2E09A126BCF87
:100B500020926E0680917D06E82FF0E0E258F94F72
:100B600080828F5F80937D06952C5DCF361408F4CC
:100B70006EC020917B0630917C06C901880F991FB9
:100B8000220F331F220F331F220F331F820F931F99
:100B9000E3E0F0E0EC0FFD1FE60DF11D208130E0F9
:100BA00020533109820F931F90937C0680937B061C
:100BB0006394741418F52091790630917A06C9016E
:100BC000880F991F220F331F220F331F220F331F4D
:100BD000820F931FE7E1F0E0EC0FFD1FE70DF11D21
:100BE000208130E020533109820F931F90937A06C1
:100BF000809379067394741408F415CF361408F0B2
:100C000012CFA12CB12CC12CD12C0F2EFCE0EF2E39
:100C1000F7E0FF2EF02D04E020E030E045E550E065
:100C200060E070E08DE993E00E94260780910A075A
:100C300090910B070E942F08F6CE60E080E00E94A2
:100C40008C018B810E94720112E0952CECCE741401
:100C500008F4B1CFD6CFCF93DF9300D0CDB7DEB7B6
:100C60000E946F030E94A9089A8389830F2EF3E0E4
:100C7000EF2EF12CF02D0F2EF4E6BF2EF02D01E01B
:100C800010E06894CC24C1F8D12C6AEF70E0CE015A
:100C900001960E94FC0980916C0690916D0681304E
:100CA000910549F11CF4892B41F0EFCF8230910579
:100CB000B1F1039709F454C0E8CF0E946F0380910B
:100CC0006A0690916B068536910564F40E9485034F
:100CD00080916A0690916B060A9690936B068093BA
:100CE0006A06D3CF10926B0610926A0610936D06B7
:100CF00000936C06CACF0E9493038091680690917E
:100D000069068A30910529F4D0926D06C0926C066E
:100D1000BCCF01969093690680936806B6CF0E9477
:100D20006F0380916A0690916B06853691057CF47D
:100D30002B2D281B822F0E94850380916A0690919B
:100D40006B060A9690936B0680936A069ECF10926C
:100D50006B0610926A06F0926D06E0926C0695CFD3
:100D60000E9493038091680690916906009729F488
:100D700010926D0610926C0688CF019790936906C9
:100D80008093680682CFAF92BF92CF92DF92EF92AC
:100D9000FF920F930E9461010E94A401A12CB12C2B
:100DA000C12CD12C0F2EF2E1EF2EF7E0FF2EF02D0B
:100DB00001E020E030E045E550E060E070E081EBEC
:100DC00093E00E9426070E94780880E090E00F914F
:100DD000FF90EF90DF90CF90BF90AF900895CF93AA
:100DE000DF93EC01E0910807F09109079383828378
:100DF0008091AF069091B006C817D90768F460914A
:100E00000807709109078091C5069091C6066E5F2C
:100E10007F4F0E94F00117C0609108077091090789
:100E20008091C7069091C8066E5F7F4F0E94F001C7
:100E30008091600090916100C817D90720F4D09389
:100E40006100C0936000DF91CF9108954F925F924F
:100E50006F927F928F929F92AF92BF92CF92DF92CA
:100E6000EF92FF920F931F93CF93DF935C014B019F
:100E7000EA01290181E290E00E94A7003C0100976D
:100E800009F4DBC0C114D10409F0D2C0CE010E9424
:100E9000A700F301908F878B009721F4C3010E9474
:100EA000CD00CBC0AE0165EA70E00E94120B219725
:100EB000F3018789908DC80FD91F48E050E0B40135
:100EC000C30149960E94190BF30110A2102F05309F
:100ED00008F014E0F301168B6301F2E0CF0ED11C91
:100EE000C6010E94C501C3010C960E94C501F30111
:100EF0007186608685E090E0811B910995878487E3
:100F0000738A628AA201B501CE010E945102F301E7
:100F100091838083E114F10419F0F70171826082FA
:100F20000FB6F8940F928091B1068F5F8093B1064F
:100F30008091080790910907892BA1F57092090704
:100F4000609208078091B1068130D9F5CBEDD6E0EB
:100F50000F2EF8E0EF2EF7E0FF2EF02DCE010E94CD
:100F6000B7012996CE15DF05C9F782ED96E00E94FC
:100F7000B70189EC96E00E94B7018CEB96E00E94E5
:100F8000B70183EB96E00E94B70182ED96E0909363
:100F9000C8068093C70689EC96E09093C6068093B6
:100FA000C5060FC08091AC0681110BC0E091080707
:100FB000F09109078689081720F07092090760925E
:100FC0000807F30186899091AE06981710F4809374
:100FD000AE069091A7069F5F9093A7069091AD06ED
:100FE000981710F48093AD0690E09C01220F331FF8
:100FF000220F331F220F331F820F931FB60185521A
:10100000994F0E94C9010F900FBE8091AC068823B2
:1010100059F0E0910807F09109078689801730F4AC
:101020000E94F20281E00AC081E008C081E006C0AF
:10103000FC01D08EC78AC60135CF8FEFDF91CF91EB
:101040001F910F91FF90EF90DF90CF90BF90AF90E6
:101050009F908F907F906F905F904F900895EF9248
:10106000FF920F931F93CF93DF93EC010FB6F89489
:101070000F9280910807909109078C179D0711F036
:10108000209739F4C0910807D0910907E12CF12C81
:1010900001C07E018E010E5F1F4FC8010E942B020E
:1010A0008C899D89892B21F0CE010C960E942B0200
:1010B000B80183EB96E00E94C9018091B2068F5F70
:1010C0008093B2068091A7068F5F8093A7060F904A
:1010D0000FBE8091AC06882321F0EF2811F40E9406
:1010E000F202DF91CF911F910F91FF90EF90089541
:1010F000AF92BF92CF92DF92EF92FF920F93A12C0B
:10110000B12CC12CD12CE12CF12C00E020E030E0FE
:1011100045E550E064E870E086E49AE00E94260726
:10112000813049F4F8948093AC061092B006109286
:10113000AF060E94BD020F91FF90EF90DF90CF901D
:10114000BF90AF9008958091AB068F5F8093AB0600
:1011500008950FB6F8940F928091AF069091B00663
:101160000F900FBE08950F931F93CF93DF9380913D
:10117000AB068111B2C08091AF069091B006019686
:101180009093B0068093AF068091AF069091B00621
:10119000892B99F58091C7069091C8062091C506C4
:1011A0003091C6063093C8062093C7069093C606B2
:1011B0008093C5068091A8068F5F8093A806E09172
:1011C000C706F091C8068081811107C08FEF9FEF9D
:1011D000909361008093600010C0E091C706F09189
:1011E000C8060580F681E02D0680F781E02D82811A
:1011F000938190936100809360002091AF063091BD
:10120000B00680916000909161002817390708F4BA
:1012100069C0E091C706F091C8068081882399F0E3
:10122000E091C706F091C8060580F681E02DC681E1
:10123000D7818A819B812091AF063091B006281713
:101240003907F8F419C08FEF9FEF909361008093F6
:10125000600048C0E091C706F091C8060580F6819D
:10126000E02DC681D7818A819B812091AF06309184
:10127000B0062817390728F4909361008093600026
:1012800031C08E010E5F1F4FC8010E942B028C8956
:101290009D89892B21F0CE010C960E942B028E890C
:1012A0009091AD06981710F48093AD0690E09C01E4
:1012B000220F331F220F331F220F331F820F931F62
:1012C000B8018552994F0E94C901E091C706F0917B
:1012D000C80680818111BECFB6CF8091AA068F5FEC
:1012E0008093AA06DF91CF911F910F910895CF921D
:1012F000DF92EF92FF920F931F93CF93DF930FB67E
:10130000F8940F928091AB0681508093AB06809148
:10131000AB06811163C08091B106811132C061C0FA
:10132000D7011596ED91FC911697C681D781CE0114
:101330000C960E942B028E010E5F1F4FC8010E9467
:101340002B028E899091AD06981710F48093AD060C
:1013500090E09C01220F331F220F331F220F331FF7
:10136000820F931FB8018552994F0E94C901E091E5
:101370000807F09109079E898689981758F0DC2C98
:1013800009C0D12C0F2EFCEBEF2EF6E0FF2EF02D36
:10139000CC24C394F70180818111C2CF8091AA0629
:1013A000882379F08091AA06882359F00E94B30817
:1013B0008091AA0681508093AA068091AA06811185
:1013C000F5CFF1E0DF1621F08091A906813041F4DC
:1013D0001092A9060E94F20281E003C080E001C0E1
:1013E00080E00F900FBEDF91CF911F910F91FF9082
:1013F000EF90DF90CF9008950F931F93CF93DF93DB
:101400008C01EB010E94A308F80180819181C80F33
:10141000D91F2091AF063091B0062817390768F41C
:10142000C817D90750F58091AF069091B006D183C7
:10143000C0838C179D07B0F40BC0C817D907C8F03C
:101440008091AF069091B0068C179D0790F015C063
:10145000809108079091090702960E942B02CE0105
:101460000E94EF060E94770981110BC00E94F202D0
:1014700008C0F801D183C083EBCFF801D183C083CA
:10148000F1CFDF91CF911F910F91089503EB16E0FB
:101490008091B206882349F10E94A308D801CC911B
:1014A0000E947709CC2309F10FB6F8940F92D80166
:1014B0001596ED91FC911697C681D781CE010296C3
:1014C0000E942B028091B10681508093B1068091D9
:1014D000B20681508093B2060F900FBE8F89988D0F
:1014E0000E94CD00CE010E94CD000E94F202D0CF1A
:1014F0008091AB06811113C08091AD0690E0FC0194
:10150000EE0FFF1FEE0FFF1FEE0FFF1F8E0F9F1F2F
:10151000FC01E552F94F8081882329F01BC081E04E
:101520008093A90608958091AD0681508093AD0601
:101530008091AD0690E0FC01EE0FFF1FEE0FFF1F44
:10154000EE0FFF1F8E0F9F1FFC01E552F94F8081A8
:10155000882349F38091AD0690E09C01220F331F50
:10156000220F331F220F331F280F391FD901A55215
:10157000B94F1196ED91FC9112970280F381E02D05
:101580001296FC93EE9311972252394FE217F3070C
:1015900029F422813381FD0132832183FC01EE0F86
:1015A000FF1FEE0FFF1FEE0FFF1F8E0F9F1FFC018F
:1015B000E552F94F0180F281E02D86819781909369
:1015C000090780930807089597FB072E16F40094E7
:1015D00007D077FD09D00E94FE0A07FC05D03EF433
:1015E000909581959F4F0895709561957F4F0895CF
:1015F000EE0FFF1F0590F491E02D0994AA1BBB1B71
:1016000051E107C0AA1FBB1FA617B70710F0A61B02
:10161000B70B881F991F5A95A9F780959095BC0123
:10162000CD010895DC0101C06D9341505040E0F7B9
:101630000895FB01DC014150504048F001900D92AB
:101640000020C9F701C01D9241505040E0F70895B5
:04165000F894FFCF3C
:10165400FFFF77656C636F6D65005072657373206F
:10166400616E79204B657920746F00436F6E7469E5
:0A1674006E75650049444C45000006
:00000001FF
